:03001F0002046078
:0B000E00EF1FAC0670011E4C70F622C4
:1003BE00D3EF9400EE940040147D6E7C00ED1D7022
:0D03CE00011CED4C70F7EF1F70E61E80E380
:0103DB0022FF
:0600030012044202045148
:0600190012044702045628
:0604240012044202045B19
:06042A0012044C02045113
:0604300012044C02045B03
:060436001204470204510C
:06043C0012044202045606
:05044200D2B6C2B52294
:05044700C2B6D2B5228F
:05044C00C2B6C2B5229A
:05045100D2B4C2B32289
:05045600C2B4D2B32284
:05045B00C2B4C2B3228F
:1003F700010F00010A00010B00010C00010D0001B3
:060407000E0002080000D7
:10040E008F0F8D0A8B0B438901850F8C850A8AD23B
:06041E00A9D2AFD28C222E
:03000B000203836A
:04038300C0E0C0D046
:10038700850F8C850A8A0509E50970020508D3954A
:100397000BE50894004006750800750900D3E509C8
:1003A700950EE50894005006D2B7D2B28004C2B7C2
:0203B700C2B2D0
:0503B900D0D0D0E032BD
:0504600012002680FBE4
:1003DC0053877F75985053890F438920758BFD7512
:0B03EC008DFDC2ABD28ED2AFD2AC228E
:030023000201FBDC
:1001FB00C0E0C0F0C083C082C0D075D000C000C0CA
:0D020B0001C002C003C004C005C006C0074A
:100218002098030202DC120430AF997E00EE6003DE
:100228000202DAEF248D60612443B4070040030220
:1002380002DA90024875F003A4C58325F0C58373DC
:1002480002028F02025D02026202026B0202740263
:10025800027D02028612000380031200197F587E75
:1002680002806912042A7FF47E0180601204247FD0
:10027800F47E0180571204367FE87E03804E120414
:100288003C7FE87E03804580461200037FF47E01B0
:100298001203BE1204247FF47E011203BE1200036F
:1002A8007FF47E011203BE1204247FF47E01120340
:1002B800BE1200037FF47E011203BE1204247FF4F1
:1002C8007E011203BE1200037FF47E011203BE12E8
:0402D8000430C29894
:1002DC00D007D006D005D004D003D002D001D00076
:0B02EC00D0D0D082D083D0F0D0E03220
:050465001203DC80FB26
:1000260030940C30930930920630910320901E20B4
:10003600940C20930920920620910330900F30945F
:100046001B30931820921530911230900F750E18B0
:100056007BC87DA37FFF12040E120003309422207A
:10006600931F30921C309119309016750E2A7BC85A
:100076007DA37FFF12040E12042A7F327E00120334
:10008600BE30942230931F30921C20911930901666
:10009600750E2A7BC87DA37FFF12040E1204247FEF
:1000A600327E001203BE30940C3093092092063043
:1000B600910330904B30940C309309309206309176
:1000C6000330903C30940C30930930920620910313
:1000D60030902D30940C30930920920620910330F5
:1000E600901E30940C2093092092062091033090A4
:1000F6000F30945920935630925320915020904DB2
:100106007FB77E001203BE750E2A7BC87DA37FFFD4
:1001160012040E12043C20941620931320921020F1
:10012600910D20900A1200037F1E7E001203BE303E
:10013600940C20930930920630910320900F30944E
:10014600D23093CF3092CC2091C93090C620940CF7
:1001560030930920920630910320904B20940C3066
:10016600930930920630910320903C20940C209302
:100176000930920630910320902D20940C2093098B
:1001860020920630910320901E20940C2093092083
:10019600920620910320900F209459209356309276
:1001A6005320915030904D7FB77E001203BE750EDE
:1001B6002A7BC87DA37FFF12040E120436209416F4
:1001C60020931320921020910D20900A1200037F95
:1001D6001E7E001203BE30940C2093093092063026
:1001E600910320900F3094D23093CF3092CC20914F
:0501F600C93090C62293
:030000000202F702
:0C02F700787FE4F6D8FD75810F02033E0D
:1003030002001FE493A3F8E493A34003F68001F2F1
:1003130008DFF48029E493A3F85407240CC8C333FB
:10032300C4540F4420C8834004F456800146F6DFCA
:10033300E4800B01020408102040809003F7E47E60
:10034300019360BCA3FF543F30E509541FFEE493BF
:10035300A360010ECF54C025E060A840B8E493A386
:10036300FAE493A3F8E493A3C8C582C8CAC583CAB1
:10037300F0A3C8C582C8CAC583CADFE9DEE780BE69
:01040D0000EE
:00000001FF
